{
  "_format": "hh-sol-artifact-1",
  "contractName": "SketchPortal",
  "sourceName": "contracts/SketchPortal.sol",
  "abi": [
    {
      "inputs": [],
      "stateMutability": "payable",
      "type": "constructor"
    },
    {
      "anonymous": false,
      "inputs": [
        {
          "indexed": true,
          "internalType": "address",
          "name": "from",
          "type": "address"
        },
        {
          "indexed": false,
          "internalType": "uint256",
          "name": "timestamp",
          "type": "uint256"
        },
        {
          "indexed": false,
          "internalType": "string",
          "name": "sketch",
          "type": "string"
        },
        {
          "indexed": false,
          "internalType": "string",
          "name": "title",
          "type": "string"
        }
      ],
      "name": "NewSketch",
      "type": "event"
    },
    {
      "inputs": [],
      "name": "getAllSketches",
      "outputs": [
        {
          "components": [
            {
              "internalType": "address",
              "name": "sketcher",
              "type": "address"
            },
            {
              "internalType": "string",
              "name": "sketch",
              "type": "string"
            },
            {
              "internalType": "string",
              "name": "title",
              "type": "string"
            },
            {
              "internalType": "uint256",
              "name": "timestamp",
              "type": "uint256"
            }
          ],
          "internalType": "struct SketchPortal.Sketch[]",
          "name": "",
          "type": "tuple[]"
        }
      ],
      "stateMutability": "view",
      "type": "function"
    },
    {
      "inputs": [],
      "name": "getNumberOfSketches",
      "outputs": [
        {
          "internalType": "uint256",
          "name": "",
          "type": "uint256"
        }
      ],
      "stateMutability": "view",
      "type": "function"
    },
    {
      "inputs": [
        {
          "internalType": "string",
          "name": "_sketch",
          "type": "string"
        },
        {
          "internalType": "string",
          "name": "_title",
          "type": "string"
        }
      ],
      "name": "sendSketch",
      "outputs": [],
      "stateMutability": "nonpayable",
      "type": "function"
    }
  ],
  "bytecode": "0x60806040526200004f6040518060400160405280601981526020017f4920414d20534d41525420434f4e54524143542e20504f472e000000000000008152506200005560201b620005ad1760201c565b620001e9565b620000f5816040516024016200006c919062000162565b6040516020818303038152906040527f41304fac000000000000000000000000000000000000000000000000000000007bffffffffffffffffffffffffffffffffffffffffffffffffffffffff19166020820180517bffffffffffffffffffffffffffffffffffffffffffffffffffffffff8381831617835250505050620000f860201b60201c565b50565b60008151905060006a636f6e736f6c652e6c6f679050602083016000808483855afa5050505050565b60006200012e8262000186565b6200013a818562000191565b93506200014c818560208601620001a2565b6200015781620001d8565b840191505092915050565b600060208201905081810360008301526200017e818462000121565b905092915050565b600081519050919050565b600082825260208201905092915050565b60005b83811015620001c2578082015181840152602081019050620001a5565b83811115620001d2576000848401525b50505050565b6000601f19601f8301169050919050565b6111c280620001f96000396000f3fe608060405234801561001057600080fd5b50600436106100415760003560e01c806345d7250c1461004657806366c769a514610062578063728c846714610080575b600080fd5b610060600480360381019061005b91906109cb565b61009e565b005b61006a61037f565b6040516100779190610c79565b60405180910390f35b610088610562565b6040516100959190610d7d565b60405180910390f35b6100a782610646565b6100e6576040517f08c379a00000000000000000000000000000000000000000000000000000000081526004016100dd90610d5d565b60405180910390fd5b60016000808282546100f89190610ea4565b9250508190555061013e6040518060400160405280601181526020017f25732073656e74206120736b65746368210000000000000000000000000000008152503361075f565b600160405180608001604052803373ffffffffffffffffffffffffffffffffffffffff16815260200184815260200183815260200142815250908060018154018082558091505060019003906000526020600020906004020160009091909190915060008201518160000160006101000a81548173ffffffffffffffffffffffffffffffffffffffff021916908373ffffffffffffffffffffffffffffffffffffffff16021790555060208201518160010190805190602001906102039291906108c0565b5060408201518160020190805190602001906102209291906108c0565b506060820151816003015550503373ffffffffffffffffffffffffffffffffffffffff167f5e9ffa1411e2f47427a94cddb50dff8721427f30a51745e14289bca263a7a74142848460405161027793929190610d98565b60405180910390a26000655af3107a40009050478111156102cd576040517f08c379a00000000000000000000000000000000000000000000000000000000081526004016102c490610d1d565b60405180910390fd5b60003373ffffffffffffffffffffffffffffffffffffffff16826040516102f390610c64565b60006040518083038185875af1925050503d8060008114610330576040519150601f19603f3d011682016040523d82523d6000602084013e610335565b606091505b5050905080610379576040517f08c379a000000000000000000000000000000000000000000000000000000000815260040161037090610d3d565b60405180910390fd5b50505050565b60606001805480602002602001604051908101604052809291908181526020016000905b8282101561055957838290600052602060002090600402016040518060800160405290816000820160009054906101000a900473ffffffffffffffffffffffffffffffffffffffff1673ffffffffffffffffffffffffffffffffffffffff1673ffffffffffffffffffffffffffffffffffffffff16815260200160018201805461042c90610f78565b80601f016020809104026020016040519081016040528092919081815260200182805461045890610f78565b80156104a55780601f1061047a576101008083540402835291602001916104a5565b820191906000526020600020905b81548152906001019060200180831161048857829003601f168201915b505050505081526020016002820180546104be90610f78565b80601f01602080910402602001604051908101604052809291908181526020018280546104ea90610f78565b80156105375780601f1061050c57610100808354040283529160200191610537565b820191906000526020600020905b81548152906001019060200180831161051a57829003601f168201915b50505050508152602001600382015481525050815260200190600101906103a3565b50505050905090565b60006105a56040518060400160405280601a81526020017f5765206861766520256420746f74616c20736b657463686573210000000000008152506000546107fb565b600054905090565b610643816040516024016105c19190610c9b565b6040516020818303038152906040527f41304fac000000000000000000000000000000000000000000000000000000007bffffffffffffffffffffffffffffffffffffffffffffffffffffffff19166020820180517bffffffffffffffffffffffffffffffffffffffffffffffffffffffff8381831617835250505050610897565b50565b60008061070090506000839050818151146106665760009250505061075a565b60005b81518110156107525760008282815181106106ad577f4e487b7100000000000000000000000000000000000000000000000000000000600052603260045260246000fd5b602001015160f81c60f81b60f81c905060238160ff1614156106cf575061073f565b603a8160ff161080156106e55750602f8160ff16115b156106f0575061073f565b60478160ff16108015610706575060408160ff16115b15610711575061073f565b60678160ff16108015610727575060608160ff16115b15610732575061073f565b600094505050505061075a565b808061074a90610fdb565b915050610669565b506001925050505b919050565b6107f78282604051602401610775929190610cbd565b6040516020818303038152906040527f319af333000000000000000000000000000000000000000000000000000000007bffffffffffffffffffffffffffffffffffffffffffffffffffffffff19166020820180517bffffffffffffffffffffffffffffffffffffffffffffffffffffffff8381831617835250505050610897565b5050565b6108938282604051602401610811929190610ced565b6040516020818303038152906040527f9710a9d0000000000000000000000000000000000000000000000000000000007bffffffffffffffffffffffffffffffffffffffffffffffffffffffff19166020820180517bffffffffffffffffffffffffffffffffffffffffffffffffffffffff8381831617835250505050610897565b5050565b60008151905060006a636f6e736f6c652e6c6f679050602083016000808483855afa5050505050565b8280546108cc90610f78565b90600052602060002090601f0160209004810192826108ee5760008555610935565b82601f1061090757805160ff1916838001178555610935565b82800160010185558215610935579182015b82811115610934578251825591602001919060010190610919565b5b5090506109429190610946565b5090565b5b8082111561095f576000816000905550600101610947565b5090565b600061097661097184610e02565b610ddd565b90508281526020810184848401111561098e57600080fd5b610999848285610f36565b509392505050565b600082601f8301126109b257600080fd5b81356109c2848260208601610963565b91505092915050565b600080604083850312156109de57600080fd5b600083013567ffffffffffffffff8111156109f857600080fd5b610a04858286016109a1565b925050602083013567ffffffffffffffff811115610a2157600080fd5b610a2d858286016109a1565b9150509250929050565b6000610a438383610bdc565b905092915050565b610a5481610efa565b82525050565b610a6381610efa565b82525050565b6000610a7482610e43565b610a7e8185610e66565b935083602082028501610a9085610e33565b8060005b85811015610acc5784840389528151610aad8582610a37565b9450610ab883610e59565b925060208a01995050600181019050610a94565b50829750879550505050505092915050565b6000610ae982610e4e565b610af38185610e82565b9350610b03818560208601610f45565b610b0c816110b1565b840191505092915050565b6000610b2282610e4e565b610b2c8185610e93565b9350610b3c818560208601610f45565b610b45816110b1565b840191505092915050565b6000610b5d603483610e93565b9150610b68826110c2565b604082019050919050565b6000610b80602783610e93565b9150610b8b82611111565b604082019050919050565b6000610ba3600f83610e93565b9150610bae82611160565b602082019050919050565b6000610bc6600083610e77565b9150610bd182611189565b600082019050919050565b6000608083016000830151610bf46000860182610a4b565b5060208301518482036020860152610c0c8282610ade565b91505060408301518482036040860152610c268282610ade565b9150506060830151610c3b6060860182610c46565b508091505092915050565b610c4f81610f2c565b82525050565b610c5e81610f2c565b82525050565b6000610c6f82610bb9565b9150819050919050565b60006020820190508181036000830152610c938184610a69565b905092915050565b60006020820190508181036000830152610cb58184610b17565b905092915050565b60006040820190508181036000830152610cd78185610b17565b9050610ce66020830184610a5a565b9392505050565b60006040820190508181036000830152610d078185610b17565b9050610d166020830184610c55565b9392505050565b60006020820190508181036000830152610d3681610b50565b9050919050565b60006020820190508181036000830152610d5681610b73565b9050919050565b60006020820190508181036000830152610d7681610b96565b9050919050565b6000602082019050610d926000830184610c55565b92915050565b6000606082019050610dad6000830186610c55565b8181036020830152610dbf8185610b17565b90508181036040830152610dd38184610b17565b9050949350505050565b6000610de7610df8565b9050610df38282610faa565b919050565b6000604051905090565b600067ffffffffffffffff821115610e1d57610e1c611082565b5b610e26826110b1565b9050602081019050919050565b6000819050602082019050919050565b600081519050919050565b600081519050919050565b6000602082019050919050565b600082825260208201905092915050565b600081905092915050565b600082825260208201905092915050565b600082825260208201905092915050565b6000610eaf82610f2c565b9150610eba83610f2c565b9250827fffffffffffffffffffffffffffffffffffffffffffffffffffffffffffffffff03821115610eef57610eee611024565b5b828201905092915050565b6000610f0582610f0c565b9050919050565b600073ffffffffffffffffffffffffffffffffffffffff82169050919050565b6000819050919050565b82818337600083830152505050565b60005b83811015610f63578082015181840152602081019050610f48565b83811115610f72576000848401525b50505050565b60006002820490506001821680610f9057607f821691505b60208210811415610fa457610fa3611053565b5b50919050565b610fb3826110b1565b810181811067ffffffffffffffff82111715610fd257610fd1611082565b5b80604052505050565b6000610fe682610f2c565b91507fffffffffffffffffffffffffffffffffffffffffffffffffffffffffffffffff82141561101957611018611024565b5b600182019050919050565b7f4e487b7100000000000000000000000000000000000000000000000000000000600052601160045260246000fd5b7f4e487b7100000000000000000000000000000000000000000000000000000000600052602260045260246000fd5b7f4e487b7100000000000000000000000000000000000000000000000000000000600052604160045260246000fd5b6000601f19601f8301169050919050565b7f547279696e6720746f207769746864726177206d6f7265206d6f6e657920746860008201527f616e2074686520636f6e7472616374206861732e000000000000000000000000602082015250565b7f4661696c656420746f207769746864726177206d6f6e65792066726f6d20636f60008201527f6e74726163742e00000000000000000000000000000000000000000000000000602082015250565b7f496e76616c696420736b657463682e0000000000000000000000000000000000600082015250565b5056fea2646970667358221220ef7621b97f2c80eb989b7b87c1a529ca271270629daeccca8c88c20bc23540da64736f6c63430008040033",
  "linkReferences": {},
  "deployedLinkReferences": {}
}