{
  "_format": "hh-sol-artifact-1",
  "contractName": "SketchPortal",
  "sourceName": "contracts/SketchPortal.sol",
  "abi": [
    {
      "inputs": [],
      "stateMutability": "payable",
      "type": "constructor"
    },
    {
      "anonymous": false,
      "inputs": [
        {
          "indexed": true,
          "internalType": "address",
          "name": "from",
          "type": "address"
        },
        {
          "indexed": false,
          "internalType": "uint256",
          "name": "timestamp",
          "type": "uint256"
        },
        {
          "indexed": false,
          "internalType": "string",
          "name": "sketch",
          "type": "string"
        },
        {
          "indexed": false,
          "internalType": "string",
          "name": "title",
          "type": "string"
        }
      ],
      "name": "NewSketch",
      "type": "event"
    },
    {
      "inputs": [],
      "name": "getAllSketches",
      "outputs": [
        {
          "components": [
            {
              "internalType": "address",
              "name": "sketcher",
              "type": "address"
            },
            {
              "internalType": "string",
              "name": "sketch",
              "type": "string"
            },
            {
              "internalType": "string",
              "name": "title",
              "type": "string"
            },
            {
              "internalType": "uint256",
              "name": "timestamp",
              "type": "uint256"
            }
          ],
          "internalType": "struct SketchPortal.Sketch[]",
          "name": "",
          "type": "tuple[]"
        }
      ],
      "stateMutability": "view",
      "type": "function"
    },
    {
      "inputs": [],
      "name": "getNumberOfSketches",
      "outputs": [
        {
          "internalType": "uint256",
          "name": "",
          "type": "uint256"
        }
      ],
      "stateMutability": "view",
      "type": "function"
    },
    {
      "inputs": [
        {
          "internalType": "address",
          "name": "",
          "type": "address"
        }
      ],
      "name": "lastSketchSentAt",
      "outputs": [
        {
          "internalType": "uint256",
          "name": "",
          "type": "uint256"
        }
      ],
      "stateMutability": "view",
      "type": "function"
    },
    {
      "inputs": [
        {
          "internalType": "string",
          "name": "_sketch",
          "type": "string"
        },
        {
          "internalType": "string",
          "name": "_title",
          "type": "string"
        }
      ],
      "name": "sendSketch",
      "outputs": [],
      "stateMutability": "nonpayable",
      "type": "function"
    }
  ],
  "bytecode": "0x60806040526200004f6040518060400160405280601981526020017f4920414d20534d41525420434f4e54524143542e20504f472e000000000000008152506200007760201b6200073c1760201c565b606444426200005f9190620001c4565b6200006b919062000261565b60018190555062000308565b62000117816040516024016200008e919062000184565b6040516020818303038152906040527f41304fac000000000000000000000000000000000000000000000000000000007bffffffffffffffffffffffffffffffffffffffffffffffffffffffff19166020820180517bffffffffffffffffffffffffffffffffffffffffffffffffffffffff83818316178352505050506200011a60201b60201c565b50565b60008151905060006a636f6e736f6c652e6c6f679050602083016000808483855afa5050505050565b60006200015082620001a8565b6200015c8185620001b3565b93506200016e8185602086016200022b565b6200017981620002f7565b840191505092915050565b60006020820190508181036000830152620001a0818462000143565b905092915050565b600081519050919050565b600082825260208201905092915050565b6000620001d18262000221565b9150620001de8362000221565b9250827fffffffffffffffffffffffffffffffffffffffffffffffffffffffffffffffff0382111562000216576200021562000299565b5b828201905092915050565b6000819050919050565b60005b838110156200024b5780820151818401526020810190506200022e565b838111156200025b576000848401525b50505050565b60006200026e8262000221565b91506200027b8362000221565b9250826200028e576200028d620002c8565b5b828206905092915050565b7f4e487b7100000000000000000000000000000000000000000000000000000000600052601160045260246000fd5b7f4e487b7100000000000000000000000000000000000000000000000000000000600052601260045260246000fd5b6000601f19601f8301169050919050565b61147280620003186000396000f3fe608060405234801561001057600080fd5b506004361061004c5760003560e01c80631faa928f1461005157806345d7250c1461008157806366c769a51461009d578063728c8467146100bb575b600080fd5b61006b60048036038101906100669190610b6f565b6100d9565b6040516100789190610f8d565b60405180910390f35b61009b60048036038101906100969190610b98565b6100f1565b005b6100a561050e565b6040516100b29190610e69565b60405180910390f35b6100c36106f1565b6040516100d09190610f8d565b60405180910390f35b60036020528060005260406000206000915090505481565b6100fa826107d5565b610139576040517f08c379a000000000000000000000000000000000000000000000000000000000815260040161013090610f6d565b60405180910390fd5b42603c600360003373ffffffffffffffffffffffffffffffffffffffff1673ffffffffffffffffffffffffffffffffffffffff1681526020019081526020016000205461018691906110b4565b106101c6576040517f08c379a00000000000000000000000000000000000000000000000000000000081526004016101bd90610f0d565b60405180910390fd5b42600360003373ffffffffffffffffffffffffffffffffffffffff1673ffffffffffffffffffffffffffffffffffffffff16815260200190815260200160002081905550600160008082825461021c91906110b4565b925050819055506102626040518060400160405280601181526020017f25732073656e74206120736b6574636821000000000000000000000000000000815250336108ee565b600260405180608001604052803373ffffffffffffffffffffffffffffffffffffffff16815260200184815260200183815260200142815250908060018154018082558091505060019003906000526020600020906004020160009091909190915060008201518160000160006101000a81548173ffffffffffffffffffffffffffffffffffffffff021916908373ffffffffffffffffffffffffffffffffffffffff1602179055506020820151816001019080519060200190610327929190610a4f565b506040820151816002019080519060200190610344929190610a4f565b506060820151816003015550506064444261035f91906110b4565b6103699190611234565b6001819055506103b06040518060400160405280601681526020017f52616e646f6d20232067656e6572617465643a2025640000000000000000000081525060015461098a565b603260015410156104b8576000655af3107a4000905047811115610409576040517f08c379a000000000000000000000000000000000000000000000000000000000815260040161040090610f2d565b60405180910390fd5b60003373ffffffffffffffffffffffffffffffffffffffff168260405161042f90610e54565b60006040518083038185875af1925050503d806000811461046c576040519150601f19603f3d011682016040523d82523d6000602084013e610471565b606091505b50509050806104b5576040517f08c379a00000000000000000000000000000000000000000000000000000000081526004016104ac90610f4d565b60405180910390fd5b50505b3373ffffffffffffffffffffffffffffffffffffffff167f5e9ffa1411e2f47427a94cddb50dff8721427f30a51745e14289bca263a7a74142848460405161050293929190610fa8565b60405180910390a25050565b60606002805480602002602001604051908101604052809291908181526020016000905b828210156106e857838290600052602060002090600402016040518060800160405290816000820160009054906101000a900473ffffffffffffffffffffffffffffffffffffffff1673ffffffffffffffffffffffffffffffffffffffff1673ffffffffffffffffffffffffffffffffffffffff1681526020016001820180546105bb90611188565b80601f01602080910402602001604051908101604052809291908181526020018280546105e790611188565b80156106345780601f1061060957610100808354040283529160200191610634565b820191906000526020600020905b81548152906001019060200180831161061757829003601f168201915b5050505050815260200160028201805461064d90611188565b80601f016020809104026020016040519081016040528092919081815260200182805461067990611188565b80156106c65780601f1061069b576101008083540402835291602001916106c6565b820191906000526020600020905b8154815290600101906020018083116106a957829003601f168201915b5050505050815260200160038201548152505081526020019060010190610532565b50505050905090565b60006107346040518060400160405280601a81526020017f5765206861766520256420746f74616c20736b6574636865732100000000000081525060005461098a565b600054905090565b6107d2816040516024016107509190610e8b565b6040516020818303038152906040527f41304fac000000000000000000000000000000000000000000000000000000007bffffffffffffffffffffffffffffffffffffffffffffffffffffffff19166020820180517bffffffffffffffffffffffffffffffffffffffffffffffffffffffff8381831617835250505050610a26565b50565b60008061070090506000839050818151146107f5576000925050506108e9565b60005b81518110156108e157600082828151811061083c577f4e487b7100000000000000000000000000000000000000000000000000000000600052603260045260246000fd5b602001015160f81c60f81b60f81c905060238160ff16141561085e57506108ce565b603a8160ff161080156108745750602f8160ff16115b1561087f57506108ce565b60478160ff16108015610895575060408160ff16115b156108a057506108ce565b60678160ff161080156108b6575060608160ff16115b156108c157506108ce565b60009450505050506108e9565b80806108d9906111eb565b9150506107f8565b506001925050505b919050565b6109868282604051602401610904929190610ead565b6040516020818303038152906040527f319af333000000000000000000000000000000000000000000000000000000007bffffffffffffffffffffffffffffffffffffffffffffffffffffffff19166020820180517bffffffffffffffffffffffffffffffffffffffffffffffffffffffff8381831617835250505050610a26565b5050565b610a2282826040516024016109a0929190610edd565b6040516020818303038152906040527f9710a9d0000000000000000000000000000000000000000000000000000000007bffffffffffffffffffffffffffffffffffffffffffffffffffffffff19166020820180517bffffffffffffffffffffffffffffffffffffffffffffffffffffffff8381831617835250505050610a26565b5050565b60008151905060006a636f6e736f6c652e6c6f679050602083016000808483855afa5050505050565b828054610a5b90611188565b90600052602060002090601f016020900481019282610a7d5760008555610ac4565b82601f10610a9657805160ff1916838001178555610ac4565b82800160010185558215610ac4579182015b82811115610ac3578251825591602001919060010190610aa8565b5b509050610ad19190610ad5565b5090565b5b80821115610aee576000816000905550600101610ad6565b5090565b6000610b05610b0084611012565b610fed565b905082815260208101848484011115610b1d57600080fd5b610b28848285611146565b509392505050565b600081359050610b3f81611425565b92915050565b600082601f830112610b5657600080fd5b8135610b66848260208601610af2565b91505092915050565b600060208284031215610b8157600080fd5b6000610b8f84828501610b30565b91505092915050565b60008060408385031215610bab57600080fd5b600083013567ffffffffffffffff811115610bc557600080fd5b610bd185828601610b45565b925050602083013567ffffffffffffffff811115610bee57600080fd5b610bfa85828601610b45565b9150509250929050565b6000610c108383610dcc565b905092915050565b610c218161110a565b82525050565b610c308161110a565b82525050565b6000610c4182611053565b610c4b8185611076565b935083602082028501610c5d85611043565b8060005b85811015610c995784840389528151610c7a8582610c04565b9450610c8583611069565b925060208a01995050600181019050610c61565b50829750879550505050505092915050565b6000610cb68261105e565b610cc08185611092565b9350610cd0818560208601611155565b610cd981611321565b840191505092915050565b6000610cef8261105e565b610cf981856110a3565b9350610d09818560208601611155565b610d1281611321565b840191505092915050565b6000610d2a6007836110a3565b9150610d3582611332565b602082019050919050565b6000610d4d6034836110a3565b9150610d588261135b565b604082019050919050565b6000610d706027836110a3565b9150610d7b826113aa565b604082019050919050565b6000610d93600f836110a3565b9150610d9e826113f9565b602082019050919050565b6000610db6600083611087565b9150610dc182611422565b600082019050919050565b6000608083016000830151610de46000860182610c18565b5060208301518482036020860152610dfc8282610cab565b91505060408301518482036040860152610e168282610cab565b9150506060830151610e2b6060860182610e36565b508091505092915050565b610e3f8161113c565b82525050565b610e4e8161113c565b82525050565b6000610e5f82610da9565b9150819050919050565b60006020820190508181036000830152610e838184610c36565b905092915050565b60006020820190508181036000830152610ea58184610ce4565b905092915050565b60006040820190508181036000830152610ec78185610ce4565b9050610ed66020830184610c27565b9392505050565b60006040820190508181036000830152610ef78185610ce4565b9050610f066020830184610e45565b9392505050565b60006020820190508181036000830152610f2681610d1d565b9050919050565b60006020820190508181036000830152610f4681610d40565b9050919050565b60006020820190508181036000830152610f6681610d63565b9050919050565b60006020820190508181036000830152610f8681610d86565b9050919050565b6000602082019050610fa26000830184610e45565b92915050565b6000606082019050610fbd6000830186610e45565b8181036020830152610fcf8185610ce4565b90508181036040830152610fe38184610ce4565b9050949350505050565b6000610ff7611008565b905061100382826111ba565b919050565b6000604051905090565b600067ffffffffffffffff82111561102d5761102c6112f2565b5b61103682611321565b9050602081019050919050565b6000819050602082019050919050565b600081519050919050565b600081519050919050565b6000602082019050919050565b600082825260208201905092915050565b600081905092915050565b600082825260208201905092915050565b600082825260208201905092915050565b60006110bf8261113c565b91506110ca8361113c565b9250827fffffffffffffffffffffffffffffffffffffffffffffffffffffffffffffffff038211156110ff576110fe611265565b5b828201905092915050565b60006111158261111c565b9050919050565b600073ffffffffffffffffffffffffffffffffffffffff82169050919050565b6000819050919050565b82818337600083830152505050565b60005b83811015611173578082015181840152602081019050611158565b83811115611182576000848401525b50505050565b600060028204905060018216806111a057607f821691505b602082108114156111b4576111b36112c3565b5b50919050565b6111c382611321565b810181811067ffffffffffffffff821117156111e2576111e16112f2565b5b80604052505050565b60006111f68261113c565b91507fffffffffffffffffffffffffffffffffffffffffffffffffffffffffffffffff82141561122957611228611265565b5b600182019050919050565b600061123f8261113c565b915061124a8361113c565b92508261125a57611259611294565b5b828206905092915050565b7f4e487b7100000000000000000000000000000000000000000000000000000000600052601160045260246000fd5b7f4e487b7100000000000000000000000000000000000000000000000000000000600052601260045260246000fd5b7f4e487b7100000000000000000000000000000000000000000000000000000000600052602260045260246000fd5b7f4e487b7100000000000000000000000000000000000000000000000000000000600052604160045260246000fd5b6000601f19601f8301169050919050565b7f5761697420316d00000000000000000000000000000000000000000000000000600082015250565b7f547279696e6720746f207769746864726177206d6f7265206d6f6e657920746860008201527f616e2074686520636f6e7472616374206861732e000000000000000000000000602082015250565b7f4661696c656420746f207769746864726177206d6f6e65792066726f6d20636f60008201527f6e74726163742e00000000000000000000000000000000000000000000000000602082015250565b7f496e76616c696420736b657463682e0000000000000000000000000000000000600082015250565b50565b61142e8161110a565b811461143957600080fd5b5056fea2646970667358221220d69705642113afe68aa28490a250ee7a937f3d9106e83d193ca467c25fceb65164736f6c63430008040033",
  "linkReferences": {},
  "deployedLinkReferences": {}
}