{
  "_format": "hh-sol-artifact-1",
  "contractName": "SketchPortal",
  "sourceName": "contracts/SketchPortal.sol",
  "abi": [
    {
      "inputs": [],
      "stateMutability": "nonpayable",
      "type": "constructor"
    },
    {
      "anonymous": false,
      "inputs": [
        {
          "indexed": true,
          "internalType": "address",
          "name": "from",
          "type": "address"
        },
        {
          "indexed": false,
          "internalType": "uint256",
          "name": "timestamp",
          "type": "uint256"
        },
        {
          "indexed": false,
          "internalType": "string",
          "name": "sketch",
          "type": "string"
        }
      ],
      "name": "NewSketch",
      "type": "event"
    },
    {
      "inputs": [],
      "name": "getAllSketches",
      "outputs": [
        {
          "components": [
            {
              "internalType": "address",
              "name": "sketcher",
              "type": "address"
            },
            {
              "internalType": "string",
              "name": "sketch",
              "type": "string"
            },
            {
              "internalType": "uint256",
              "name": "timestamp",
              "type": "uint256"
            }
          ],
          "internalType": "struct SketchPortal.Sketch[]",
          "name": "",
          "type": "tuple[]"
        }
      ],
      "stateMutability": "view",
      "type": "function"
    },
    {
      "inputs": [],
      "name": "getTotalWaves",
      "outputs": [
        {
          "internalType": "uint256",
          "name": "",
          "type": "uint256"
        }
      ],
      "stateMutability": "view",
      "type": "function"
    },
    {
      "inputs": [
        {
          "internalType": "string",
          "name": "_sketch",
          "type": "string"
        }
      ],
      "name": "sendSketch",
      "outputs": [],
      "stateMutability": "nonpayable",
      "type": "function"
    }
  ],
  "bytecode": "0x60806040523480156200001157600080fd5b506200005d6040518060400160405280601981526020017f4920414d20534d41525420434f4e54524143542e20504f472e000000000000008152506200006360201b620003f91760201c565b620001f7565b62000103816040516024016200007a919062000170565b6040516020818303038152906040527f41304fac000000000000000000000000000000000000000000000000000000007bffffffffffffffffffffffffffffffffffffffffffffffffffffffff19166020820180517bffffffffffffffffffffffffffffffffffffffffffffffffffffffff83818316178352505050506200010660201b60201c565b50565b60008151905060006a636f6e736f6c652e6c6f679050602083016000808483855afa5050505050565b60006200013c8262000194565b6200014881856200019f565b93506200015a818560208601620001b0565b6200016581620001e6565b840191505092915050565b600060208201905081810360008301526200018c81846200012f565b905092915050565b600081519050919050565b600082825260208201905092915050565b60005b83811015620001d0578082015181840152602081019050620001b3565b83811115620001e0576000848401525b50505050565b6000601f19601f8301169050919050565b610e4a80620002076000396000f3fe608060405234801561001057600080fd5b50600436106100415760003560e01c80631426ba5b1461004657806366c769a5146100625780639a2cdc0814610080575b600080fd5b610060600480360381019061005b9190610817565b61009e565b005b61006a61025d565b6040516100779190610a02565b60405180910390f35b6100886103ae565b6040516100959190610ac6565b60405180910390f35b6100a781610492565b6100e6576040517f08c379a00000000000000000000000000000000000000000000000000000000081526004016100dd90610aa6565b60405180910390fd5b60016000808282546100f89190610bcd565b9250508190555061013e6040518060400160405280601181526020017f25732073656e74206120736b6574636821000000000000000000000000000000815250336105ab565b600160405180606001604052803373ffffffffffffffffffffffffffffffffffffffff16815260200183815260200142815250908060018154018082558091505060019003906000526020600020906003020160009091909190915060008201518160000160006101000a81548173ffffffffffffffffffffffffffffffffffffffff021916908373ffffffffffffffffffffffffffffffffffffffff16021790555060208201518160010190805190602001906101fd92919061070c565b506040820151816002015550503373ffffffffffffffffffffffffffffffffffffffff167fd396589a50c4fa35183389aceb525089da55466b8dd56e716555a074f27ec7ad4283604051610252929190610ae1565b60405180910390a250565b60606001805480602002602001604051908101604052809291908181526020016000905b828210156103a557838290600052602060002090600302016040518060600160405290816000820160009054906101000a900473ffffffffffffffffffffffffffffffffffffffff1673ffffffffffffffffffffffffffffffffffffffff1673ffffffffffffffffffffffffffffffffffffffff16815260200160018201805461030a90610ca1565b80601f016020809104026020016040519081016040528092919081815260200182805461033690610ca1565b80156103835780601f1061035857610100808354040283529160200191610383565b820191906000526020600020905b81548152906001019060200180831161036657829003601f168201915b5050505050815260200160028201548152505081526020019060010190610281565b50505050905090565b60006103f16040518060400160405280601a81526020017f5765206861766520256420746f74616c20736b65746368657321000000000000815250600054610647565b600054905090565b61048f8160405160240161040d9190610a24565b6040516020818303038152906040527f41304fac000000000000000000000000000000000000000000000000000000007bffffffffffffffffffffffffffffffffffffffffffffffffffffffff19166020820180517bffffffffffffffffffffffffffffffffffffffffffffffffffffffff83818316178352505050506106e3565b50565b60008061070090506000839050818151146104b2576000925050506105a6565b60005b815181101561059e5760008282815181106104f9577f4e487b7100000000000000000000000000000000000000000000000000000000600052603260045260246000fd5b602001015160f81c60f81b60f81c905060238160ff16141561051b575061058b565b603a8160ff161080156105315750602f8160ff16115b1561053c575061058b565b60478160ff16108015610552575060408160ff16115b1561055d575061058b565b60678160ff16108015610573575060608160ff16115b1561057e575061058b565b60009450505050506105a6565b808061059690610d04565b9150506104b5565b506001925050505b919050565b61064382826040516024016105c1929190610a46565b6040516020818303038152906040527f319af333000000000000000000000000000000000000000000000000000000007bffffffffffffffffffffffffffffffffffffffffffffffffffffffff19166020820180517bffffffffffffffffffffffffffffffffffffffffffffffffffffffff83818316178352505050506106e3565b5050565b6106df828260405160240161065d929190610a76565b6040516020818303038152906040527f9710a9d0000000000000000000000000000000000000000000000000000000007bffffffffffffffffffffffffffffffffffffffffffffffffffffffff19166020820180517bffffffffffffffffffffffffffffffffffffffffffffffffffffffff83818316178352505050506106e3565b5050565b60008151905060006a636f6e736f6c652e6c6f679050602083016000808483855afa5050505050565b82805461071890610ca1565b90600052602060002090601f01602090048101928261073a5760008555610781565b82601f1061075357805160ff1916838001178555610781565b82800160010185558215610781579182015b82811115610780578251825591602001919060010190610765565b5b50905061078e9190610792565b5090565b5b808211156107ab576000816000905550600101610793565b5090565b60006107c26107bd84610b36565b610b11565b9050828152602081018484840111156107da57600080fd5b6107e5848285610c5f565b509392505050565b600082601f8301126107fe57600080fd5b813561080e8482602086016107af565b91505092915050565b60006020828403121561082957600080fd5b600082013567ffffffffffffffff81111561084357600080fd5b61084f848285016107ed565b91505092915050565b60006108648383610994565b905092915050565b61087581610c23565b82525050565b61088481610c23565b82525050565b600061089582610b77565b61089f8185610b9a565b9350836020820285016108b185610b67565b8060005b858110156108ed57848403895281516108ce8582610858565b94506108d983610b8d565b925060208a019950506001810190506108b5565b50829750879550505050505092915050565b600061090a82610b82565b6109148185610bab565b9350610924818560208601610c6e565b61092d81610dda565b840191505092915050565b600061094382610b82565b61094d8185610bbc565b935061095d818560208601610c6e565b61096681610dda565b840191505092915050565b600061097e600f83610bbc565b915061098982610deb565b602082019050919050565b60006060830160008301516109ac600086018261086c565b50602083015184820360208601526109c482826108ff565b91505060408301516109d960408601826109e4565b508091505092915050565b6109ed81610c55565b82525050565b6109fc81610c55565b82525050565b60006020820190508181036000830152610a1c818461088a565b905092915050565b60006020820190508181036000830152610a3e8184610938565b905092915050565b60006040820190508181036000830152610a608185610938565b9050610a6f602083018461087b565b9392505050565b60006040820190508181036000830152610a908185610938565b9050610a9f60208301846109f3565b9392505050565b60006020820190508181036000830152610abf81610971565b9050919050565b6000602082019050610adb60008301846109f3565b92915050565b6000604082019050610af660008301856109f3565b8181036020830152610b088184610938565b90509392505050565b6000610b1b610b2c565b9050610b278282610cd3565b919050565b6000604051905090565b600067ffffffffffffffff821115610b5157610b50610dab565b5b610b5a82610dda565b9050602081019050919050565b6000819050602082019050919050565b600081519050919050565b600081519050919050565b6000602082019050919050565b600082825260208201905092915050565b600082825260208201905092915050565b600082825260208201905092915050565b6000610bd882610c55565b9150610be383610c55565b9250827fffffffffffffffffffffffffffffffffffffffffffffffffffffffffffffffff03821115610c1857610c17610d4d565b5b828201905092915050565b6000610c2e82610c35565b9050919050565b600073ffffffffffffffffffffffffffffffffffffffff82169050919050565b6000819050919050565b82818337600083830152505050565b60005b83811015610c8c578082015181840152602081019050610c71565b83811115610c9b576000848401525b50505050565b60006002820490506001821680610cb957607f821691505b60208210811415610ccd57610ccc610d7c565b5b50919050565b610cdc82610dda565b810181811067ffffffffffffffff82111715610cfb57610cfa610dab565b5b80604052505050565b6000610d0f82610c55565b91507fffffffffffffffffffffffffffffffffffffffffffffffffffffffffffffffff821415610d4257610d41610d4d565b5b600182019050919050565b7f4e487b7100000000000000000000000000000000000000000000000000000000600052601160045260246000fd5b7f4e487b7100000000000000000000000000000000000000000000000000000000600052602260045260246000fd5b7f4e487b7100000000000000000000000000000000000000000000000000000000600052604160045260246000fd5b6000601f19601f8301169050919050565b7f496e76616c696420736b657463682e000000000000000000000000000000000060008201525056fea2646970667358221220b75786da0cfd78f5264c97d5e63246e28e69fa754d1682fed935ca10649168f864736f6c63430008040033",
  "linkReferences": {},
  "deployedLinkReferences": {}
}